{
  "_format": "hh-sol-artifact-1",
  "contractName": "VotingSystem",
  "sourceName": "contracts/VotingSystem.sol",
  "abi": [
    {
      "inputs": [],
      "stateMutability": "nonpayable",
      "type": "constructor"
    },
    {
      "inputs": [
        {
          "internalType": "string",
          "name": "_name",
          "type": "string"
        },
        {
          "internalType": "string",
          "name": "_gender",
          "type": "string"
        },
        {
          "internalType": "string",
          "name": "_party",
          "type": "string"
        }
      ],
      "name": "addCandidate",
      "outputs": [],
      "stateMutability": "nonpayable",
      "type": "function"
    },
    {
      "inputs": [],
      "name": "admin",
      "outputs": [
        {
          "internalType": "address",
          "name": "",
          "type": "address"
        }
      ],
      "stateMutability": "view",
      "type": "function"
    },
    {
      "inputs": [],
      "name": "currentElection",
      "outputs": [
        {
          "internalType": "string",
          "name": "name",
          "type": "string"
        },
        {
          "internalType": "bool",
          "name": "isActive",
          "type": "bool"
        },
        {
          "internalType": "uint256",
          "name": "candidatesCount",
          "type": "uint256"
        }
      ],
      "stateMutability": "view",
      "type": "function"
    },
    {
      "inputs": [],
      "name": "declareWinner",
      "outputs": [
        {
          "internalType": "string",
          "name": "winnerName",
          "type": "string"
        }
      ],
      "stateMutability": "view",
      "type": "function"
    },
    {
      "inputs": [],
      "name": "electionInProgress",
      "outputs": [
        {
          "internalType": "bool",
          "name": "",
          "type": "bool"
        }
      ],
      "stateMutability": "view",
      "type": "function"
    },
    {
      "inputs": [],
      "name": "endVotingPhase",
      "outputs": [],
      "stateMutability": "nonpayable",
      "type": "function"
    },
    {
      "inputs": [],
      "name": "getCandidates",
      "outputs": [
        {
          "components": [
            {
              "internalType": "string",
              "name": "name",
              "type": "string"
            },
            {
              "internalType": "string",
              "name": "gender",
              "type": "string"
            },
            {
              "internalType": "string",
              "name": "party",
              "type": "string"
            },
            {
              "internalType": "uint256",
              "name": "voteCount",
              "type": "uint256"
            }
          ],
          "internalType": "struct VotingSystem.Candidate[]",
          "name": "",
          "type": "tuple[]"
        }
      ],
      "stateMutability": "view",
      "type": "function"
    },
    {
      "inputs": [
        {
          "internalType": "string",
          "name": "_name",
          "type": "string"
        }
      ],
      "name": "startNewElection",
      "outputs": [],
      "stateMutability": "nonpayable",
      "type": "function"
    },
    {
      "inputs": [],
      "name": "startVotingPhase",
      "outputs": [],
      "stateMutability": "nonpayable",
      "type": "function"
    },
    {
      "inputs": [
        {
          "internalType": "uint256",
          "name": "candidateId",
          "type": "uint256"
        },
        {
          "internalType": "string",
          "name": "voterId",
          "type": "string"
        }
      ],
      "name": "vote",
      "outputs": [],
      "stateMutability": "nonpayable",
      "type": "function"
    }
  ],
  "bytecode": "0x608060405234801561001057600080fd5b50336000806101000a81548173ffffffffffffffffffffffffffffffffffffffff021916908373ffffffffffffffffffffffffffffffffffffffff1602179055506118d0806100606000396000f3fe608060405234801561001057600080fd5b506004361061009e5760003560e01c8063a300e22411610066578063a300e22414610135578063ad71f8dc1461013f578063cb43284e1461015b578063f851a44014610165578063fcae83a7146101835761009e565b806306a49fce146100a357806314034bd2146100c15780631e9b5794146100df57806324108475146100fd5780636508721514610119575b600080fd5b6100ab6101a3565b6040516100b89190611017565b60405180910390f35b6100c9610432565b6040516100d69190611083565b60405180910390f35b6100e7610597565b6040516100f491906110c0565b60405180910390f35b61011760048036038101906101129190611250565b6105aa565b005b610133600480360381019061012e91906112ac565b6107be565b005b61013d6108fc565b005b610159600480360381019061015491906112f5565b610a13565b005b610163610bb7565b005b61016d610c96565b60405161017a91906113dd565b60405180910390f35b61018b610cba565b60405161019a93929190611407565b60405180910390f35b6060600060016003015467ffffffffffffffff8111156101c6576101c5611125565b5b6040519080825280602002602001820160405280156101ff57816020015b6101ec610d67565b8152602001906001900390816101e45790505b50905060005b60016003015481101561042a5760006001600201600083815260200190815260200160002090508060405180608001604052908160008201805461024890611474565b80601f016020809104026020016040519081016040528092919081815260200182805461027490611474565b80156102c15780601f10610296576101008083540402835291602001916102c1565b820191906000526020600020905b8154815290600101906020018083116102a457829003601f168201915b505050505081526020016001820180546102da90611474565b80601f016020809104026020016040519081016040528092919081815260200182805461030690611474565b80156103535780601f1061032857610100808354040283529160200191610353565b820191906000526020600020905b81548152906001019060200180831161033657829003601f168201915b5050505050815260200160028201805461036c90611474565b80601f016020809104026020016040519081016040528092919081815260200182805461039890611474565b80156103e55780601f106103ba576101008083540402835291602001916103e5565b820191906000526020600020905b8154815290600101906020018083116103c857829003601f168201915b5050505050815260200160038201548152505083838151811061040b5761040a6114a6565b5b602002602001018190525050808061042290611504565b915050610205565b508091505090565b60606001800160009054906101000a900460ff1615610486576040517f08c379a000000000000000000000000000000000000000000000000000000000815260040161047d90611599565b60405180910390fd5b60008060005b6001600301548110156104ed5782600160020160008381526020019081526020016000206003015411156104da57600160020160008281526020019081526020016000206003015492508091505b80806104e590611504565b91505061048c565b5060016002016000828152602001908152602001600020600001805461051290611474565b80601f016020809104026020016040519081016040528092919081815260200182805461053e90611474565b801561058b5780601f106105605761010080835404028352916020019161058b565b820191906000526020600020905b81548152906001019060200180831161056e57829003601f168201915b50505050509250505090565b600760009054906101000a900460ff1681565b600760009054906101000a900460ff166105f9576040517f08c379a00000000000000000000000000000000000000000000000000000000081526004016105f090611605565b60405180910390fd5b600160040160003373ffffffffffffffffffffffffffffffffffffffff1673ffffffffffffffffffffffffffffffffffffffff16815260200190815260200160002060009054906101000a900460ff1615610689576040517f08c379a000000000000000000000000000000000000000000000000000000000815260040161068090611671565b60405180910390fd5b60016005018160405161069c91906116cd565b908152602001604051809103902060009054906101000a900460ff16156106f8576040517f08c379a00000000000000000000000000000000000000000000000000000000081526004016106ef90611756565b60405180910390fd5b60016002016000838152602001908152602001600020600301600081548092919061072290611504565b919050555060018060040160003373ffffffffffffffffffffffffffffffffffffffff1673ffffffffffffffffffffffffffffffffffffffff16815260200190815260200160002060006101000a81548160ff0219169083151502179055506001806005018260405161079591906116cd565b908152602001604051809103902060006101000a81548160ff0219169083151502179055505050565b60008054906101000a900473ffffffffffffffffffffffffffffffffffffffff1673ffffffffffffffffffffffffffffffffffffffff163373ffffffffffffffffffffffffffffffffffffffff161461084c576040517f08c379a0000000000000000000000000000000000000000000000000000000008152600401610843906117e8565b60405180910390fd5b600760009054906101000a900460ff161561089c576040517f08c379a00000000000000000000000000000000000000000000000000000000081526004016108939061187a565b60405180910390fd5b80600160000190805190602001906108b5929190610d8f565b5060018060010160006101000a81548160ff02191690831515021790555060006001600301819055506001600760006101000a81548160ff02191690831515021790555050565b60008054906101000a900473ffffffffffffffffffffffffffffffffffffffff1673ffffffffffffffffffffffffffffffffffffffff163373ffffffffffffffffffffffffffffffffffffffff161461098a576040517f08c379a0000000000000000000000000000000000000000000000000000000008152600401610981906117e8565b60405180910390fd5b600760009054906101000a900460ff166109d9576040517f08c379a00000000000000000000000000000000000000000000000000000000081526004016109d090611605565b60405180910390fd5b60006001800160006101000a81548160ff0219169083151502179055506000600760006101000a81548160ff021916908315150217905550565b60008054906101000a900473ffffffffffffffffffffffffffffffffffffffff1673ffffffffffffffffffffffffffffffffffffffff163373ffffffffffffffffffffffffffffffffffffffff1614610aa1576040517f08c379a0000000000000000000000000000000000000000000000000000000008152600401610a98906117e8565b60405180910390fd5b600760009054906101000a900460ff16610af0576040517f08c379a0000000000000000000000000000000000000000000000000000000008152600401610ae790611605565b60405180910390fd5b6000600160030154905060405180608001604052808581526020018481526020018381526020016000815250600160020160008381526020019081526020016000206000820151816000019080519060200190610b4e929190610d8f565b506020820151816001019080519060200190610b6b929190610d8f565b506040820151816002019080519060200190610b88929190610d8f565b506060820151816003015590505060016003016000815480929190610bac90611504565b919050555050505050565b60008054906101000a900473ffffffffffffffffffffffffffffffffffffffff1673ffffffffffffffffffffffffffffffffffffffff163373ffffffffffffffffffffffffffffffffffffffff1614610c45576040517f08c379a0000000000000000000000000000000000000000000000000000000008152600401610c3c906117e8565b60405180910390fd5b600760009054906101000a900460ff16610c94576040517f08c379a0000000000000000000000000000000000000000000000000000000008152600401610c8b90611605565b60405180910390fd5b565b60008054906101000a900473ffffffffffffffffffffffffffffffffffffffff1681565b6001806000018054610ccb90611474565b80601f0160208091040260200160405190810160405280929190818152602001828054610cf790611474565b8015610d445780601f10610d1957610100808354040283529160200191610d44565b820191906000526020600020905b815481529060010190602001808311610d2757829003601f168201915b5050505050908060010160009054906101000a900460ff16908060030154905083565b6040518060800160405280606081526020016060815260200160608152602001600081525090565b828054610d9b90611474565b90600052602060002090601f016020900481019282610dbd5760008555610e04565b82601f10610dd657805160ff1916838001178555610e04565b82800160010185558215610e04579182015b82811115610e03578251825591602001919060010190610de8565b5b509050610e119190610e15565b5090565b5b80821115610e2e576000816000905550600101610e16565b5090565b600081519050919050565b600082825260208201905092915050565b6000819050602082019050919050565b600081519050919050565b600082825260208201905092915050565b60005b83811015610e98578082015181840152602081019050610e7d565b83811115610ea7576000848401525b50505050565b6000601f19601f8301169050919050565b6000610ec982610e5e565b610ed38185610e69565b9350610ee3818560208601610e7a565b610eec81610ead565b840191505092915050565b6000819050919050565b610f0a81610ef7565b82525050565b60006080830160008301518482036000860152610f2d8282610ebe565b91505060208301518482036020860152610f478282610ebe565b91505060408301518482036040860152610f618282610ebe565b9150506060830151610f766060860182610f01565b508091505092915050565b6000610f8d8383610f10565b905092915050565b6000602082019050919050565b6000610fad82610e32565b610fb78185610e3d565b935083602082028501610fc985610e4e565b8060005b858110156110055784840389528151610fe68582610f81565b9450610ff183610f95565b925060208a01995050600181019050610fcd565b50829750879550505050505092915050565b600060208201905081810360008301526110318184610fa2565b905092915050565b600082825260208201905092915050565b600061105582610e5e565b61105f8185611039565b935061106f818560208601610e7a565b61107881610ead565b840191505092915050565b6000602082019050818103600083015261109d818461104a565b905092915050565b60008115159050919050565b6110ba816110a5565b82525050565b60006020820190506110d560008301846110b1565b92915050565b6000604051905090565b600080fd5b600080fd5b6110f881610ef7565b811461110357600080fd5b50565b600081359050611115816110ef565b92915050565b600080fd5b600080fd5b7f4e487b7100000000000000000000000000000000000000000000000000000000600052604160045260246000fd5b61115d82610ead565b810181811067ffffffffffffffff8211171561117c5761117b611125565b5b80604052505050565b600061118f6110db565b905061119b8282611154565b919050565b600067ffffffffffffffff8211156111bb576111ba611125565b5b6111c482610ead565b9050602081019050919050565b82818337600083830152505050565b60006111f36111ee846111a0565b611185565b90508281526020810184848401111561120f5761120e611120565b5b61121a8482856111d1565b509392505050565b600082601f8301126112375761123661111b565b5b81356112478482602086016111e0565b91505092915050565b60008060408385031215611267576112666110e5565b5b600061127585828601611106565b925050602083013567ffffffffffffffff811115611296576112956110ea565b5b6112a285828601611222565b9150509250929050565b6000602082840312156112c2576112c16110e5565b5b600082013567ffffffffffffffff8111156112e0576112df6110ea565b5b6112ec84828501611222565b91505092915050565b60008060006060848603121561130e5761130d6110e5565b5b600084013567ffffffffffffffff81111561132c5761132b6110ea565b5b61133886828701611222565b935050602084013567ffffffffffffffff811115611359576113586110ea565b5b61136586828701611222565b925050604084013567ffffffffffffffff811115611386576113856110ea565b5b61139286828701611222565b9150509250925092565b600073ffffffffffffffffffffffffffffffffffffffff82169050919050565b60006113c78261139c565b9050919050565b6113d7816113bc565b82525050565b60006020820190506113f260008301846113ce565b92915050565b61140181610ef7565b82525050565b60006060820190508181036000830152611421818661104a565b905061143060208301856110b1565b61143d60408301846113f8565b949350505050565b7f4e487b7100000000000000000000000000000000000000000000000000000000600052602260045260246000fd5b6000600282049050600182168061148c57607f821691505b602082108114156114a05761149f611445565b5b50919050565b7f4e487b7100000000000000000000000000000000000000000000000000000000600052603260045260246000fd5b7f4e487b7100000000000000000000000000000000000000000000000000000000600052601160045260246000fd5b600061150f82610ef7565b91507fffffffffffffffffffffffffffffffffffffffffffffffffffffffffffffffff821415611542576115416114d5565b5b600182019050919050565b7f456c656374696f6e206973207374696c6c206f6e676f696e6700000000000000600082015250565b6000611583601983611039565b915061158e8261154d565b602082019050919050565b600060208201905081810360008301526115b281611576565b9050919050565b7f4e6f2061637469766520656c656374696f6e0000000000000000000000000000600082015250565b60006115ef601283611039565b91506115fa826115b9565b602082019050919050565b6000602082019050818103600083015261161e816115e2565b9050919050565b7f596f75206861766520616c726561647920766f74656400000000000000000000600082015250565b600061165b601683611039565b915061166682611625565b602082019050919050565b6000602082019050818103600083015261168a8161164e565b9050919050565b600081905092915050565b60006116a782610e5e565b6116b18185611691565b93506116c1818560208601610e7a565b80840191505092915050565b60006116d9828461169c565b915081905092915050565b7f5468697320766f7465722049442068617320616c7265616479206265656e207560008201527f7365640000000000000000000000000000000000000000000000000000000000602082015250565b6000611740602383611039565b915061174b826116e4565b604082019050919050565b6000602082019050818103600083015261176f81611733565b9050919050565b7f4f6e6c792061646d696e2063616e20706572666f726d2074686973206163746960008201527f6f6e000000000000000000000000000000000000000000000000000000000000602082015250565b60006117d2602283611039565b91506117dd82611776565b604082019050919050565b60006020820190508181036000830152611801816117c5565b9050919050565b7f416e20656c656374696f6e20697320616c726561647920696e2070726f67726560008201527f7373000000000000000000000000000000000000000000000000000000000000602082015250565b6000611864602283611039565b915061186f82611808565b604082019050919050565b6000602082019050818103600083015261189381611857565b905091905056fea2646970667358221220ddb9901a45499b56a84ecf51a0893bb7053c306566484349179619a4c050cc6b64736f6c634300080b0033",
  "linkReferences": {},
  "deployedLinkReferences": {}
}